{
    "_format": "hh-sol-artifact-1",
    "contractName": "Asura",
    "sourceName": "contracts/asura.sol",
    "abi": [
        {
            "anonymous": false,
            "inputs": [
                {
                    "indexed": false,
                    "internalType": "uint256",
                    "name": "battleId",
                    "type": "uint256"
                },
                {
                    "indexed": false,
                    "internalType": "string",
                    "name": "title",
                    "type": "string"
                },
                {
                    "indexed": false,
                    "internalType": "string[2]",
                    "name": "songs",
                    "type": "string[2]"
                },
                {
                    "indexed": false,
                    "internalType": "uint256",
                    "name": "endTime",
                    "type": "uint256"
                }
            ],
            "name": "BattleCreated",
            "type": "event"
        },
        {
            "anonymous": false,
            "inputs": [
                {
                    "indexed": false,
                    "internalType": "uint256",
                    "name": "battleId",
                    "type": "uint256"
                },
                {
                    "indexed": false,
                    "internalType": "address",
                    "name": "claimer",
                    "type": "address"
                }
            ],
            "name": "RewardClaimed",
            "type": "event"
        },
        {
            "anonymous": false,
            "inputs": [
                {
                    "indexed": false,
                    "internalType": "uint256",
                    "name": "battleId",
                    "type": "uint256"
                },
                {
                    "indexed": false,
                    "internalType": "address",
                    "name": "voter",
                    "type": "address"
                },
                {
                    "indexed": false,
                    "internalType": "uint256",
                    "name": "songChoice",
                    "type": "uint256"
                }
            ],
            "name": "Voted",
            "type": "event"
        },
        {
            "anonymous": false,
            "inputs": [
                {
                    "indexed": false,
                    "internalType": "uint256",
                    "name": "battleId",
                    "type": "uint256"
                },
                {
                    "indexed": false,
                    "internalType": "uint256",
                    "name": "winningSide",
                    "type": "uint256"
                }
            ],
            "name": "WinnerDeclared",
            "type": "event"
        },
        {
            "inputs": [],
            "name": "battleCount",
            "outputs": [
                {
                    "internalType": "uint256",
                    "name": "",
                    "type": "uint256"
                }
            ],
            "stateMutability": "view",
            "type": "function"
        },
        {
            "inputs": [
                {
                    "internalType": "uint256",
                    "name": "",
                    "type": "uint256"
                }
            ],
            "name": "battles",
            "outputs": [
                {
                    "internalType": "uint256",
                    "name": "id",
                    "type": "uint256"
                },
                {
                    "internalType": "string",
                    "name": "title",
                    "type": "string"
                },
                {
                    "internalType": "string",
                    "name": "description",
                    "type": "string"
                },
                {
                    "internalType": "uint256",
                    "name": "endTime",
                    "type": "uint256"
                },
                {
                    "internalType": "uint256",
                    "name": "fee",
                    "type": "uint256"
                },
                {
                    "internalType": "uint256",
                    "name": "winningSide",
                    "type": "uint256"
                },
                {
                    "internalType": "bool",
                    "name": "winnerDeclared",
                    "type": "bool"
                },
                {
                    "internalType": "uint256",
                    "name": "prizePool",
                    "type": "uint256"
                }
            ],
            "stateMutability": "view",
            "type": "function"
        },
        {
            "inputs": [
                {
                    "internalType": "uint256",
                    "name": "_battleId",
                    "type": "uint256"
                }
            ],
            "name": "claimReward",
            "outputs": [],
            "stateMutability": "nonpayable",
            "type": "function"
        },
        {
            "inputs": [
                {
                    "internalType": "string",
                    "name": "_title",
                    "type": "string"
                },
                {
                    "internalType": "string",
                    "name": "_description",
                    "type": "string"
                },
                {
                    "internalType": "string[2]",
                    "name": "_songs",
                    "type": "string[2]"
                },
                {
                    "internalType": "string[2]",
                    "name": "_artists",
                    "type": "string[2]"
                },
                {
                    "internalType": "uint256",
                    "name": "_fee",
                    "type": "uint256"
                }
            ],
            "name": "createBattle",
            "outputs": [],
            "stateMutability": "nonpayable",
            "type": "function"
        },
        {
            "inputs": [
                {
                    "internalType": "uint256",
                    "name": "_battleId",
                    "type": "uint256"
                }
            ],
            "name": "declareWinner",
            "outputs": [],
            "stateMutability": "nonpayable",
            "type": "function"
        },
        {
            "inputs": [],
            "name": "getActiveBattles",
            "outputs": [
                {
                    "internalType": "uint256[]",
                    "name": "",
                    "type": "uint256[]"
                }
            ],
            "stateMutability": "view",
            "type": "function"
        },
        {
            "inputs": [
                {
                    "internalType": "uint256",
                    "name": "_battleId",
                    "type": "uint256"
                }
            ],
            "name": "getBattleDetails",
            "outputs": [
                {
                    "internalType": "string",
                    "name": "title",
                    "type": "string"
                },
                {
                    "internalType": "string",
                    "name": "description",
                    "type": "string"
                },
                {
                    "internalType": "string[2]",
                    "name": "songs",
                    "type": "string[2]"
                },
                {
                    "internalType": "string[2]",
                    "name": "artists",
                    "type": "string[2]"
                },
                {
                    "internalType": "uint256",
                    "name": "endTime",
                    "type": "uint256"
                },
                {
                    "internalType": "uint256",
                    "name": "fee",
                    "type": "uint256"
                },
                {
                    "internalType": "uint256[2]",
                    "name": "voteCount",
                    "type": "uint256[2]"
                },
                {
                    "internalType": "uint256",
                    "name": "winningSide",
                    "type": "uint256"
                },
                {
                    "internalType": "uint256",
                    "name": "prizePool",
                    "type": "uint256"
                },
                {
                    "internalType": "bool",
                    "name": "winnerDeclared",
                    "type": "bool"
                }
            ],
            "stateMutability": "view",
            "type": "function"
        },
        {
            "inputs": [],
            "name": "getEndedBattles",
            "outputs": [
                {
                    "internalType": "uint256[]",
                    "name": "",
                    "type": "uint256[]"
                }
            ],
            "stateMutability": "view",
            "type": "function"
        },
        {
            "inputs": [
                {
                    "internalType": "address",
                    "name": "_user",
                    "type": "address"
                }
            ],
            "name": "getUserWins",
            "outputs": [
                {
                    "internalType": "uint256[]",
                    "name": "",
                    "type": "uint256[]"
                }
            ],
            "stateMutability": "view",
            "type": "function"
        },
        {
            "inputs": [
                {
                    "internalType": "address",
                    "name": "_user",
                    "type": "address"
                }
            ],
            "name": "getVotedBattles",
            "outputs": [
                {
                    "internalType": "uint256[]",
                    "name": "",
                    "type": "uint256[]"
                }
            ],
            "stateMutability": "view",
            "type": "function"
        },
        {
            "inputs": [
                {
                    "internalType": "uint256",
                    "name": "",
                    "type": "uint256"
                },
                {
                    "internalType": "address",
                    "name": "",
                    "type": "address"
                }
            ],
            "name": "hasVoted",
            "outputs": [
                {
                    "internalType": "bool",
                    "name": "",
                    "type": "bool"
                }
            ],
            "stateMutability": "view",
            "type": "function"
        },
        {
            "inputs": [
                {
                    "internalType": "address",
                    "name": "",
                    "type": "address"
                },
                {
                    "internalType": "uint256",
                    "name": "",
                    "type": "uint256"
                }
            ],
            "name": "userWins",
            "outputs": [
                {
                    "internalType": "uint256",
                    "name": "",
                    "type": "uint256"
                }
            ],
            "stateMutability": "view",
            "type": "function"
        },
        {
            "inputs": [
                {
                    "internalType": "uint256",
                    "name": "_battleId",
                    "type": "uint256"
                },
                {
                    "internalType": "uint256",
                    "name": "_songChoice",
                    "type": "uint256"
                }
            ],
            "name": "vote",
            "outputs": [],
            "stateMutability": "payable",
            "type": "function"
        }
    ],
    "bytecode": "0x608060405234801561001057600080fd5b5061278f806100206000396000f3fe6080604052600436106100c15760003560e01c8063b384abef1161007f578063d2bffafd11610059578063d2bffafd14610283578063e00b6363146102ae578063e0909389146102d9578063f0e26f8014610316576100c1565b8063b384abef14610201578063ba2497a71461021d578063cee6346a1461025a576100c1565b8062c2943c146100c657806343859632146100ef578063606d2e961461012c5780639c5c8c3114610170578063ab103f811461019b578063ae169a50146101d8575b600080fd5b3480156100d257600080fd5b506100ed60048036038101906100e89190611ab3565b61035c565b005b3480156100fb57600080fd5b5061011660048036038101906101119190611adc565b6106e3565b6040516101239190611fe0565b60405180910390f35b34801561013857600080fd5b50610153600480360381019061014e9190611ab3565b610712565b6040516101679897969594939291906122a2565b60405180910390f35b34801561017c57600080fd5b50610185610877565b6040516101929190611fbe565b60405180910390f35b3480156101a757600080fd5b506101c260048036038101906101bd9190611977565b61098a565b6040516101cf9190611fbe565b60405180910390f35b3480156101e457600080fd5b506101ff60048036038101906101fa9190611ab3565b610ae5565b005b61021b60048036038101906102169190611b18565b610d63565b005b34801561022957600080fd5b50610244600480360381019061023f91906119a0565b611078565b60405161025191906121d4565b60405180910390f35b34801561026657600080fd5b50610281600480360381019061027c91906119dc565b6110a9565b005b34801561028f57600080fd5b506102986111ab565b6040516102a59190611fbe565b60405180910390f35b3480156102ba57600080fd5b506102c36112bd565b6040516102d091906121d4565b60405180910390f35b3480156102e557600080fd5b5061030060048036038101906102fb9190611977565b6112c3565b60405161030d9190611fbe565b60405180910390f35b34801561032257600080fd5b5061033d60048036038101906103389190611ab3565b61135a565b6040516103539a99989796959493929190611ffb565b60405180910390f35b60008060008381526020019081526020016000209050806007015442116103b8576040517f08c379a00000000000000000000000000000000000000000000000000000000081526004016103af906120f4565b60405180910390fd5b80600d0160009054906101000a900460ff161561040a576040517f08c379a000000000000000000000000000000000000000000000000000000000815260040161040190612194565b60405180910390fd5b80600a01600160028110610447577f4e487b7100000000000000000000000000000000000000000000000000000000600052603260045260246000fd5b015481600a01600060028110610486577f4e487b7100000000000000000000000000000000000000000000000000000000600052603260045260246000fd5b0154111561049d57600181600c018190555061053c565b80600a016000600281106104da577f4e487b7100000000000000000000000000000000000000000000000000000000600052603260045260246000fd5b015481600a01600160028110610519577f4e487b7100000000000000000000000000000000000000000000000000000000600052603260045260246000fd5b0154111561053057600281600c018190555061053b565b600081600c01819055505b5b600181600d0160006101000a81548160ff02191690831515021790555060005b81600901805490508110156106a157600082600a01600184600c01546105829190612525565b600281106105b9577f4e487b7100000000000000000000000000000000000000000000000000000000600052603260045260246000fd5b0154111561068e5760026000836009018381548110610601577f4e487b7100000000000000000000000000000000000000000000000000000000600052603260045260246000fd5b9060005260206000200160009054906101000a900473ffffffffffffffffffffffffffffffffffffffff1673ffffffffffffffffffffffffffffffffffffffff1673ffffffffffffffffffffffffffffffffffffffff1681526020019081526020016000208390806001815401808255809150506001900390600052602060002001600090919091909150555b808061069990612615565b91505061055c565b507fd620cad007f711f526385f9e9ecc931ea58b1285ae09a10d659b1eb9e3f374658282600c01546040516106d792919061232e565b60405180910390a15050565b60016020528160005260406000206020528060005260406000206000915091509054906101000a900460ff1681565b600060205280600052604060002060009150905080600001549080600101805461073b906125e3565b80601f0160208091040260200160405190810160405280929190818152602001828054610767906125e3565b80156107b45780601f10610789576101008083540402835291602001916107b4565b820191906000526020600020905b81548152906001019060200180831161079757829003601f168201915b5050505050908060020180546107c9906125e3565b80601f01602080910402602001604051908101604052809291908181526020018280546107f5906125e3565b80156108425780601f1061081757610100808354040283529160200191610842565b820191906000526020600020905b81548152906001019060200180831161082557829003601f168201915b50505050509080600701549080600801549080600c01549080600d0160009054906101000a900460ff169080600e0154905088565b6060600060035467ffffffffffffffff8111156108bd577f4e487b7100000000000000000000000000000000000000000000000000000000600052604160045260246000fd5b6040519080825280602002602001820160405280156108eb5781602001602082028036833780820191505090505b5090506000805b600354811015610981576000808281526020019081526020016000206007015442101561096e5780838381518110610953577f4e487b7100000000000000000000000000000000000000000000000000000000600052603260045260246000fd5b602002602001018181525050818061096a90612615565b9250505b808061097990612615565b9150506108f2565b50819250505090565b6060600060035467ffffffffffffffff8111156109d0577f4e487b7100000000000000000000000000000000000000000000000000000000600052604160045260246000fd5b6040519080825280602002602001820160405280156109fe5781602001602082028036833780820191505090505b5090506000805b600354811015610ada576001600082815260200190815260200160002060008673ffffffffffffffffffffffffffffffffffffffff1673ffffffffffffffffffffffffffffffffffffffff16815260200190815260200160002060009054906101000a900460ff1615610ac75780838381518110610aac577f4e487b7100000000000000000000000000000000000000000000000000000000600052603260045260246000fd5b6020026020010181815250508180610ac390612615565b9250505b8080610ad290612615565b915050610a05565b508192505050919050565b6000806000838152602001908152602001600020905080600d0160009054906101000a900460ff16610b4c576040517f08c379a0000000000000000000000000000000000000000000000000000000008152600401610b4390612174565b60405180910390fd5b600081600c01541415610b94576040517f08c379a0000000000000000000000000000000000000000000000000000000008152600401610b8b906120b4565b60405180910390fd5b80600f0160003373ffffffffffffffffffffffffffffffffffffffff1673ffffffffffffffffffffffffffffffffffffffff16815260200190815260200160002060009054906101000a900460ff1615610c23576040517f08c379a0000000000000000000000000000000000000000000000000000000008152600401610c1a906120d4565b60405180910390fd5b600081600a01600183600c0154610c3a9190612525565b60028110610c71577f4e487b7100000000000000000000000000000000000000000000000000000000600052603260045260246000fd5b015482600e0154610c8291906124f4565b9050600182600f0160003373ffffffffffffffffffffffffffffffffffffffff1673ffffffffffffffffffffffffffffffffffffffff16815260200190815260200160002060006101000a81548160ff0219169083151502179055503373ffffffffffffffffffffffffffffffffffffffff166108fc829081150290604051600060405180830381858888f19350505050158015610d24573d6000803e3d6000fd5b507f5dd59f4285b36241394b73f8f7ae03d0290b030a86803cf2562ecf33eeb617bd8333604051610d569291906121ef565b60405180910390a1505050565b6000806000848152602001908152602001600020905080600701544210610dbf576040517f08c379a0000000000000000000000000000000000000000000000000000000008152600401610db690612114565b60405180910390fd5b6001821480610dce5750600282145b610e0d576040517f08c379a0000000000000000000000000000000000000000000000000000000008152600401610e0490612154565b60405180910390fd5b80600801543414610e53576040517f08c379a0000000000000000000000000000000000000000000000000000000008152600401610e4a906121b4565b60405180910390fd5b6001600084815260200190815260200160002060003373ffffffffffffffffffffffffffffffffffffffff1673ffffffffffffffffffffffffffffffffffffffff16815260200190815260200160002060009054906101000a900460ff1615610ef1576040517f08c379a0000000000000000000000000000000000000000000000000000000008152600401610ee890612134565b60405180910390fd5b80600901339080600181540180825580915050600190039060005260206000200160009091909190916101000a81548173ffffffffffffffffffffffffffffffffffffffff021916908373ffffffffffffffffffffffffffffffffffffffff16021790555080600a01600183610f679190612525565b60028110610f9e577f4e487b7100000000000000000000000000000000000000000000000000000000600052603260045260246000fd5b016000815480929190610fb090612615565b91905055503481600e016000828254610fc9919061249e565b92505081905550600180600085815260200190815260200160002060003373ffffffffffffffffffffffffffffffffffffffff1673ffffffffffffffffffffffffffffffffffffffff16815260200190815260200160002060006101000a81548160ff0219169083151502179055507f1abe610cf2bf87e57dcc1181fcf5ac0934e843d8344ab9eed6e86c799f62585e83338460405161106b93929190612218565b60405180910390a1505050565b6002602052816000526040600020818154811061109457600080fd5b90600052602060002001600091509150505481565b600062015180426110ba919061249e565b90506000806000600354815260200190815260200160002090506003548160000181905550868160010190805190602001906110f79291906116c7565b50858160020190805190602001906111109291906116c7565b50848160030190600261112492919061174d565b50838160050190600261113892919061174d565b508181600701819055508281600801819055507f87827fdd05daa53e481173e1f0d511472c603359f9267e975790a348ac330190600354888785604051611182949392919061224f565b60405180910390a16003600081548092919061119d90612615565b919050555050505050505050565b6060600060035467ffffffffffffffff8111156111f1577f4e487b7100000000000000000000000000000000000000000000000000000000600052604160045260246000fd5b60405190808252806020026020018201604052801561121f5781602001602082028036833780820191505090505b5090506000805b6003548110156112b4576000808281526020019081526020016000206007015442106112a15780838381518110611286577f4e487b7100000000000000000000000000000000000000000000000000000000600052603260045260246000fd5b602002602001018181525050818061129d90612615565b9250505b80806112ac90612615565b915050611226565b50819250505090565b60035481565b6060600260008373ffffffffffffffffffffffffffffffffffffffff1673ffffffffffffffffffffffffffffffffffffffff16815260200190815260200160002080548060200260200160405190810160405280929190818152602001828054801561134e57602002820191906000526020600020905b81548152602001906001019080831161133a575b50505050509050919050565b6060806113656117a0565b61136d6117a0565b6000806113786117c7565b6000806000806000808d81526020019081526020016000209050806001018160020182600301836005018460070154856008015486600a0187600c015488600e015489600d0160009054906101000a900460ff168980546113d8906125e3565b80601f0160208091040260200160405190810160405280929190818152602001828054611404906125e3565b80156114515780601f1061142657610100808354040283529160200191611451565b820191906000526020600020905b81548152906001019060200180831161143457829003601f168201915b50505050509950888054611464906125e3565b80601f0160208091040260200160405190810160405280929190818152602001828054611490906125e3565b80156114dd5780601f106114b2576101008083540402835291602001916114dd565b820191906000526020600020905b8154815290600101906020018083116114c057829003601f168201915b5050505050985087600280602002604051908101604052809291906000905b8282101561159f578382018054611512906125e3565b80601f016020809104026020016040519081016040528092919081815260200182805461153e906125e3565b801561158b5780601f106115605761010080835404028352916020019161158b565b820191906000526020600020905b81548152906001019060200180831161156e57829003601f168201915b5050505050815260200190600101906114fc565b50505050975086600280602002604051908101604052809291906000905b828210156116605783820180546115d3906125e3565b80601f01602080910402602001604051908101604052809291908181526020018280546115ff906125e3565b801561164c5780601f106116215761010080835404028352916020019161164c565b820191906000526020600020905b81548152906001019060200180831161162f57829003601f168201915b5050505050815260200190600101906115bd565b5050505096508360028060200260405190810160405280929190826002801561169e576020028201915b81548152602001906001019080831161168a575b505050505093509a509a509a509a509a509a509a509a509a509a50509193959799509193959799565b8280546116d3906125e3565b90600052602060002090601f0160209004810192826116f5576000855561173c565b82601f1061170e57805160ff191683800117855561173c565b8280016001018555821561173c579182015b8281111561173b578251825591602001919060010190611720565b5b50905061174991906117e9565b5090565b826002810192821561178f579160200282015b8281111561178e57825182908051906020019061177e9291906116c7565b5091602001919060010190611760565b5b50905061179c9190611806565b5090565b60405180604001604052806002905b60608152602001906001900390816117af5790505090565b6040518060400160405280600290602082028036833780820191505090505090565b5b808211156118025760008160009055506001016117ea565b5090565b5b80821115611826576000818161181d919061182a565b50600101611807565b5090565b508054611836906125e3565b6000825580601f106118485750611867565b601f01602090049060005260206000209081019061186691906117e9565b5b50565b600061187d61187884612388565b612357565b9050808260005b858110156118b4578135850161189a8882611938565b845260208401935060208301925050600181019050611884565b5050509392505050565b60006118d16118cc846123ae565b612357565b9050828152602081018484840111156118e957600080fd5b6118f48482856125a1565b509392505050565b60008135905061190b8161272b565b92915050565b600082601f83011261192257600080fd5b600261192f84828561186a565b91505092915050565b600082601f83011261194957600080fd5b81356119598482602086016118be565b91505092915050565b60008135905061197181612742565b92915050565b60006020828403121561198957600080fd5b6000611997848285016118fc565b91505092915050565b600080604083850312156119b357600080fd5b60006119c1858286016118fc565b92505060206119d285828601611962565b9150509250929050565b600080600080600060a086880312156119f457600080fd5b600086013567ffffffffffffffff811115611a0e57600080fd5b611a1a88828901611938565b955050602086013567ffffffffffffffff811115611a3757600080fd5b611a4388828901611938565b945050604086013567ffffffffffffffff811115611a6057600080fd5b611a6c88828901611911565b935050606086013567ffffffffffffffff811115611a8957600080fd5b611a9588828901611911565b9250506080611aa688828901611962565b9150509295509295909350565b600060208284031215611ac557600080fd5b6000611ad384828501611962565b91505092915050565b60008060408385031215611aef57600080fd5b6000611afd85828601611962565b9250506020611b0e858286016118fc565b9150509250929050565b60008060408385031215611b2b57600080fd5b6000611b3985828601611962565b9250506020611b4a85828601611962565b9150509250929050565b6000611b608383611cc8565b905092915050565b6000611b748383611fa0565b60208301905092915050565b611b8981612559565b82525050565b6000611b9a82612402565b611ba48185612455565b935083602082028501611bb6856123de565b8060005b85811015611bf25784840389528151611bd38582611b54565b9450611bde8361242e565b925060208a01995050600181019050611bba565b50829750879550505050505092915050565b611c0d8161240d565b611c178184612460565b9250611c22826123e8565b8060005b83811015611c53578151611c3a8782611b68565b9650611c458361243b565b925050600181019050611c26565b505050505050565b6000611c6682612418565b611c70818561246b565b9350611c7b836123f2565b8060005b83811015611cac578151611c938882611b68565b9750611c9e83612448565b925050600181019050611c7f565b5085935050505092915050565b611cc28161256b565b82525050565b6000611cd382612423565b611cdd818561247c565b9350611ced8185602086016125b0565b611cf68161271a565b840191505092915050565b6000611d0c82612423565b611d16818561248d565b9350611d268185602086016125b0565b611d2f8161271a565b840191505092915050565b6000611d4760188361248d565b91507f4e6f2077696e6e657220696e207468697320626174746c6500000000000000006000830152602082019050919050565b6000611d8760168361248d565b91507f52657761726420616c726561647920636c61696d6564000000000000000000006000830152602082019050919050565b6000611dc760178361248d565b91507f426174746c65206973207374696c6c206f6e676f696e670000000000000000006000830152602082019050919050565b6000611e0760108361248d565b91507f426174746c652068617320656e646564000000000000000000000000000000006000830152602082019050919050565b6000611e4760258361248d565b91507f596f75206861766520616c726561647920766f74656420696e2074686973206260008301527f6174746c650000000000000000000000000000000000000000000000000000006020830152604082019050919050565b6000611ead60138361248d565b91507f496e76616c696420736f6e672063686f696365000000000000000000000000006000830152602082019050919050565b6000611eed60178361248d565b91507f57696e6e6572206e6f74206465636c61726564207965740000000000000000006000830152602082019050919050565b6000611f2d60178361248d565b91507f57696e6e657220616c7265616479206465636c617265640000000000000000006000830152602082019050919050565b6000611f6d60128361248d565b91507f496e636f7272656374206665652073656e7400000000000000000000000000006000830152602082019050919050565b611fa981612597565b82525050565b611fb881612597565b82525050565b60006020820190508181036000830152611fd88184611c5b565b905092915050565b6000602082019050611ff56000830184611cb9565b92915050565b6000610160820190508181036000830152612016818d611d01565b9050818103602083015261202a818c611d01565b9050818103604083015261203e818b611b8f565b90508181036060830152612052818a611b8f565b90506120616080830189611faf565b61206e60a0830188611faf565b61207b60c0830187611c04565b612089610100830186611faf565b612097610120830185611faf565b6120a5610140830184611cb9565b9b9a5050505050505050505050565b600060208201905081810360008301526120cd81611d3a565b9050919050565b600060208201905081810360008301526120ed81611d7a565b9050919050565b6000602082019050818103600083015261210d81611dba565b9050919050565b6000602082019050818103600083015261212d81611dfa565b9050919050565b6000602082019050818103600083015261214d81611e3a565b9050919050565b6000602082019050818103600083015261216d81611ea0565b9050919050565b6000602082019050818103600083015261218d81611ee0565b9050919050565b600060208201905081810360008301526121ad81611f20565b9050919050565b600060208201905081810360008301526121cd81611f60565b9050919050565b60006020820190506121e96000830184611faf565b92915050565b60006040820190506122046000830185611faf565b6122116020830184611b80565b9392505050565b600060608201905061222d6000830186611faf565b61223a6020830185611b80565b6122476040830184611faf565b949350505050565b60006080820190506122646000830187611faf565b81810360208301526122768186611d01565b9050818103604083015261228a8185611b8f565b90506122996060830184611faf565b95945050505050565b6000610100820190506122b8600083018b611faf565b81810360208301526122ca818a611d01565b905081810360408301526122de8189611d01565b90506122ed6060830188611faf565b6122fa6080830187611faf565b61230760a0830186611faf565b61231460c0830185611cb9565b61232160e0830184611faf565b9998505050505050505050565b60006040820190506123436000830185611faf565b6123506020830184611faf565b9392505050565b6000604051905081810181811067ffffffffffffffff8211171561237e5761237d6126eb565b5b8060405250919050565b600067ffffffffffffffff8211156123a3576123a26126eb565b5b602082029050919050565b600067ffffffffffffffff8211156123c9576123c86126eb565b5b601f19601f8301169050602081019050919050565b6000819050919050565b6000819050919050565b6000819050602082019050919050565b600060029050919050565b600060029050919050565b600081519050919050565b600081519050919050565b6000602082019050919050565b6000602082019050919050565b6000602082019050919050565b600081905092915050565b600081905092915050565b600082825260208201905092915050565b600082825260208201905092915050565b600082825260208201905092915050565b60006124a982612597565b91506124b483612597565b9250827fffffffffffffffffffffffffffffffffffffffffffffffffffffffffffffffff038211156124e9576124e861265e565b5b828201905092915050565b60006124ff82612597565b915061250a83612597565b92508261251a5761251961268d565b5b828204905092915050565b600061253082612597565b915061253b83612597565b92508282101561254e5761254d61265e565b5b828203905092915050565b600061256482612577565b9050919050565b60008115159050919050565b600073ffffffffffffffffffffffffffffffffffffffff82169050919050565b6000819050919050565b82818337600083830152505050565b60005b838110156125ce5780820151818401526020810190506125b3565b838111156125dd576000848401525b50505050565b600060028204905060018216806125fb57607f821691505b6020821081141561260f5761260e6126bc565b5b50919050565b600061262082612597565b91507fffffffffffffffffffffffffffffffffffffffffffffffffffffffffffffffff8214156126535761265261265e565b5b600182019050919050565b7f4e487b7100000000000000000000000000000000000000000000000000000000600052601160045260246000fd5b7f4e487b7100000000000000000000000000000000000000000000000000000000600052601260045260246000fd5b7f4e487b7100000000000000000000000000000000000000000000000000000000600052602260045260246000fd5b7f4e487b7100000000000000000000000000000000000000000000000000000000600052604160045260246000fd5b6000601f19601f8301169050919050565b61273481612559565b811461273f57600080fd5b50565b61274b81612597565b811461275657600080fd5b5056fea26469706673582212206cf42548c7bd501764220d5eaca4066a8955c12c0f175750bd614d3db7fed21f64736f6c63430008000033",
    "linkReferences": {},
    "deployedLinkReferences": {}
}